{
	"data": {
		"bytecode": {
			"linkReferences": {},
			"object": "608060405260046000557ffffffffffffffffffffffffffffffffffffffffffffffffffffffffffffffffd6001556001600260006101000a81548160ff0219169083151502179055506040518060400160405280600581526020017f7065746572000000000000000000000000000000000000000000000000000000815250600390816200008e9190620003b9565b506040518060400160405280600681526020017f7061726b6572000000000000000000000000000000000000000000000000000081525060049081620000d5919062000505565b50735b38da6a701c568545dcfcb03fcb875f56beddc4600560006101000a81548173ffffffffffffffffffffffffffffffffffffffff021916908373ffffffffffffffffffffffffffffffffffffffff1602179055503480156200013857600080fd5b50620005ec565b600081519050919050565b7f4e487b7100000000000000000000000000000000000000000000000000000000600052604160045260246000fd5b7f4e487b7100000000000000000000000000000000000000000000000000000000600052602260045260246000fd5b60006002820490506001821680620001c157607f821691505b602082108103620001d757620001d662000179565b5b50919050565b60008190508160005260206000209050919050565b60006020601f8301049050919050565b600082821b905092915050565b600060088302620002417fffffffffffffffffffffffffffffffffffffffffffffffffffffffffffffffff8262000202565b6200024d868362000202565b95508019841693508086168417925050509392505050565b6000819050919050565b6000819050919050565b60006200029a620002946200028e8462000265565b6200026f565b62000265565b9050919050565b6000819050919050565b620002b68362000279565b620002ce620002c582620002a1565b8484546200020f565b825550505050565b600090565b620002e5620002d6565b620002f2818484620002ab565b505050565b5b818110156200031a576200030e600082620002db565b600181019050620002f8565b5050565b601f82111562000369576200033381620001dd565b6200033e84620001f2565b810160208510156200034e578190505b620003666200035d85620001f2565b830182620002f7565b50505b505050565b600082821c905092915050565b60006200038e600019846008026200036e565b1980831691505092915050565b6000620003a983836200037b565b9150826002028217905092915050565b620003c4826200013f565b67ffffffffffffffff811115620003e057620003df6200014a565b5b620003ec8254620001a8565b620003f98282856200031e565b600060209050601f8311600181146200043157600084156200041c578287015190505b6200042885826200039b565b86555062000498565b601f1984166200044186620001dd565b60005b828110156200046b5784890151825560018201915060208501945060208101905062000444565b868310156200048b578489015162000487601f8916826200037b565b8355505b6001600288020188555050505b505050505050565b60008190508160005260206000209050919050565b601f8211156200050057620004ca81620004a0565b620004d584620001f2565b81016020851015620004e5578190505b620004fd620004f485620001f2565b830182620002f7565b50505b505050565b62000510826200013f565b67ffffffffffffffff8111156200052c576200052b6200014a565b5b620005388254620001a8565b62000545828285620004b5565b600060209050601f8311600181146200057d576000841562000568578287015190505b6200057485826200039b565b865550620005e4565b601f1984166200058d86620004a0565b60005b82811015620005b75784890151825560018201915060208501945060208101905062000590565b86831015620005d75784890151620005d3601f8916826200037b565b8355505b6001600288020188555050505b505050505050565b61053580620005fc6000396000f3fe608060405234801561001057600080fd5b50600436106100625760003560e01c806306fdde031461006757806315d4266c146100855780633b9eac4b146100a35780633fa4f245146100c157806347c8efa7146100df578063957aa58c146100fd575b600080fd5b61006f61011b565b60405161007c919061030c565b60405180910390f35b61008d6101a9565b60405161009a9190610347565b60405180910390f35b6100ab6101af565b6040516100b8919061037b565b60405180910390f35b6100c96101b5565b6040516100d691906103b1565b60405180910390f35b6100e76101c8565b6040516100f49190610421565b60405180910390f35b610105610256565b6040516101129190610484565b60405180910390f35b60038054610128906104ce565b80601f0160208091040260200160405190810160405280929190818152602001828054610154906104ce565b80156101a15780601f10610176576101008083540402835291602001916101a1565b820191906000526020600020905b81548152906001019060200180831161018457829003601f168201915b505050505081565b60015481565b60005481565b600260009054906101000a900460ff1681565b600480546101d5906104ce565b80601f0160208091040260200160405190810160405280929190818152602001828054610201906104ce565b801561024e5780601f106102235761010080835404028352916020019161024e565b820191906000526020600020905b81548152906001019060200180831161023157829003601f168201915b505050505081565b600560009054906101000a900473ffffffffffffffffffffffffffffffffffffffff1681565b600081519050919050565b600082825260208201905092915050565b60005b838110156102b657808201518184015260208101905061029b565b60008484015250505050565b6000601f19601f8301169050919050565b60006102de8261027c565b6102e88185610287565b93506102f8818560208601610298565b610301816102c2565b840191505092915050565b6000602082019050818103600083015261032681846102d3565b905092915050565b6000819050919050565b6103418161032e565b82525050565b600060208201905061035c6000830184610338565b92915050565b6000819050919050565b61037581610362565b82525050565b6000602082019050610390600083018461036c565b92915050565b60008115159050919050565b6103ab81610396565b82525050565b60006020820190506103c660008301846103a2565b92915050565b600081519050919050565b600082825260208201905092915050565b60006103f3826103cc565b6103fd81856103d7565b935061040d818560208601610298565b610416816102c2565b840191505092915050565b6000602082019050818103600083015261043b81846103e8565b905092915050565b600073ffffffffffffffffffffffffffffffffffffffff82169050919050565b600061046e82610443565b9050919050565b61047e81610463565b82525050565b60006020820190506104996000830184610475565b92915050565b7f4e487b7100000000000000000000000000000000000000000000000000000000600052602260045260246000fd5b600060028204905060018216806104e657607f821691505b6020821081036104f9576104f861049f565b5b5091905056fea26469706673582212206c70b064347088ede2bb80364be697faa8aeaebd6723ba7f44019bf55cb655cc64736f6c63430008120033",
			"opcodes": "PUSH1 0x80 PUSH1 0x40 MSTORE PUSH1 0x4 PUSH1 0x0 SSTORE PUSH32 0xFFFFFFFFFFFFFFFFFFFFFFFFFFFFFFFFFFFFFFFFFFFFFFFFFFFFFFFFFFFFFFFD PUSH1 0x1 SSTORE PUSH1 0x1 PUSH1 0x2 PUSH1 0x0 PUSH2 0x100 EXP DUP2 SLOAD DUP2 PUSH1 0xFF MUL NOT AND SWAP1 DUP4 ISZERO ISZERO MUL OR SWAP1 SSTORE POP PUSH1 0x40 MLOAD DUP1 PUSH1 0x40 ADD PUSH1 0x40 MSTORE DUP1 PUSH1 0x5 DUP2 MSTORE PUSH1 0x20 ADD PUSH32 0x7065746572000000000000000000000000000000000000000000000000000000 DUP2 MSTORE POP PUSH1 0x3 SWAP1 DUP2 PUSH3 0x8E SWAP2 SWAP1 PUSH3 0x3B9 JUMP JUMPDEST POP PUSH1 0x40 MLOAD DUP1 PUSH1 0x40 ADD PUSH1 0x40 MSTORE DUP1 PUSH1 0x6 DUP2 MSTORE PUSH1 0x20 ADD PUSH32 0x7061726B65720000000000000000000000000000000000000000000000000000 DUP2 MSTORE POP PUSH1 0x4 SWAP1 DUP2 PUSH3 0xD5 SWAP2 SWAP1 PUSH3 0x505 JUMP JUMPDEST POP PUSH20 0x5B38DA6A701C568545DCFCB03FCB875F56BEDDC4 PUSH1 0x5 PUSH1 0x0 PUSH2 0x100 EXP DUP2 SLOAD DUP2 PUSH20 0xFFFFFFFFFFFFFFFFFFFFFFFFFFFFFFFFFFFFFFFF MUL NOT AND SWAP1 DUP4 PUSH20 0xFFFFFFFFFFFFFFFFFFFFFFFFFFFFFFFFFFFFFFFF AND MUL OR SWAP1 SSTORE POP CALLVALUE DUP1 ISZERO PUSH3 0x138 JUMPI PUSH1 0x0 DUP1 REVERT JUMPDEST POP PUSH3 0x5EC JUMP JUMPDEST PUSH1 0x0 DUP2 MLOAD SWAP1 POP SWAP2 SWAP1 POP JUMP JUMPDEST PUSH32 0x4E487B7100000000000000000000000000000000000000000000000000000000 PUSH1 0x0 MSTORE PUSH1 0x41 PUSH1 0x4 MSTORE PUSH1 0x24 PUSH1 0x0 REVERT JUMPDEST PUSH32 0x4E487B7100000000000000000000000000000000000000000000000000000000 PUSH1 0x0 MSTORE PUSH1 0x22 PUSH1 0x4 MSTORE PUSH1 0x24 PUSH1 0x0 REVERT JUMPDEST PUSH1 0x0 PUSH1 0x2 DUP3 DIV SWAP1 POP PUSH1 0x1 DUP3 AND DUP1 PUSH3 0x1C1 JUMPI PUSH1 0x7F DUP3 AND SWAP2 POP JUMPDEST PUSH1 0x20 DUP3 LT DUP2 SUB PUSH3 0x1D7 JUMPI PUSH3 0x1D6 PUSH3 0x179 JUMP JUMPDEST JUMPDEST POP SWAP2 SWAP1 POP JUMP JUMPDEST PUSH1 0x0 DUP2 SWAP1 POP DUP2 PUSH1 0x0 MSTORE PUSH1 0x20 PUSH1 0x0 KECCAK256 SWAP1 POP SWAP2 SWAP1 POP JUMP JUMPDEST PUSH1 0x0 PUSH1 0x20 PUSH1 0x1F DUP4 ADD DIV SWAP1 POP SWAP2 SWAP1 POP JUMP JUMPDEST PUSH1 0x0 DUP3 DUP3 SHL SWAP1 POP SWAP3 SWAP2 POP POP JUMP JUMPDEST PUSH1 0x0 PUSH1 0x8 DUP4 MUL PUSH3 0x241 PUSH32 0xFFFFFFFFFFFFFFFFFFFFFFFFFFFFFFFFFFFFFFFFFFFFFFFFFFFFFFFFFFFFFFFF DUP3 PUSH3 0x202 JUMP JUMPDEST PUSH3 0x24D DUP7 DUP4 PUSH3 0x202 JUMP JUMPDEST SWAP6 POP DUP1 NOT DUP5 AND SWAP4 POP DUP1 DUP7 AND DUP5 OR SWAP3 POP POP POP SWAP4 SWAP3 POP POP POP JUMP JUMPDEST PUSH1 0x0 DUP2 SWAP1 POP SWAP2 SWAP1 POP JUMP JUMPDEST PUSH1 0x0 DUP2 SWAP1 POP SWAP2 SWAP1 POP JUMP JUMPDEST PUSH1 0x0 PUSH3 0x29A PUSH3 0x294 PUSH3 0x28E DUP5 PUSH3 0x265 JUMP JUMPDEST PUSH3 0x26F JUMP JUMPDEST PUSH3 0x265 JUMP JUMPDEST SWAP1 POP SWAP2 SWAP1 POP JUMP JUMPDEST PUSH1 0x0 DUP2 SWAP1 POP SWAP2 SWAP1 POP JUMP JUMPDEST PUSH3 0x2B6 DUP4 PUSH3 0x279 JUMP JUMPDEST PUSH3 0x2CE PUSH3 0x2C5 DUP3 PUSH3 0x2A1 JUMP JUMPDEST DUP5 DUP5 SLOAD PUSH3 0x20F JUMP JUMPDEST DUP3 SSTORE POP POP POP POP JUMP JUMPDEST PUSH1 0x0 SWAP1 JUMP JUMPDEST PUSH3 0x2E5 PUSH3 0x2D6 JUMP JUMPDEST PUSH3 0x2F2 DUP2 DUP5 DUP5 PUSH3 0x2AB JUMP JUMPDEST POP POP POP JUMP JUMPDEST JUMPDEST DUP2 DUP2 LT ISZERO PUSH3 0x31A JUMPI PUSH3 0x30E PUSH1 0x0 DUP3 PUSH3 0x2DB JUMP JUMPDEST PUSH1 0x1 DUP2 ADD SWAP1 POP PUSH3 0x2F8 JUMP JUMPDEST POP POP JUMP JUMPDEST PUSH1 0x1F DUP3 GT ISZERO PUSH3 0x369 JUMPI PUSH3 0x333 DUP2 PUSH3 0x1DD JUMP JUMPDEST PUSH3 0x33E DUP5 PUSH3 0x1F2 JUMP JUMPDEST DUP2 ADD PUSH1 0x20 DUP6 LT ISZERO PUSH3 0x34E JUMPI DUP2 SWAP1 POP JUMPDEST PUSH3 0x366 PUSH3 0x35D DUP6 PUSH3 0x1F2 JUMP JUMPDEST DUP4 ADD DUP3 PUSH3 0x2F7 JUMP JUMPDEST POP POP JUMPDEST POP POP POP JUMP JUMPDEST PUSH1 0x0 DUP3 DUP3 SHR SWAP1 POP SWAP3 SWAP2 POP POP JUMP JUMPDEST PUSH1 0x0 PUSH3 0x38E PUSH1 0x0 NOT DUP5 PUSH1 0x8 MUL PUSH3 0x36E JUMP JUMPDEST NOT DUP1 DUP4 AND SWAP2 POP POP SWAP3 SWAP2 POP POP JUMP JUMPDEST PUSH1 0x0 PUSH3 0x3A9 DUP4 DUP4 PUSH3 0x37B JUMP JUMPDEST SWAP2 POP DUP3 PUSH1 0x2 MUL DUP3 OR SWAP1 POP SWAP3 SWAP2 POP POP JUMP JUMPDEST PUSH3 0x3C4 DUP3 PUSH3 0x13F JUMP JUMPDEST PUSH8 0xFFFFFFFFFFFFFFFF DUP2 GT ISZERO PUSH3 0x3E0 JUMPI PUSH3 0x3DF PUSH3 0x14A JUMP JUMPDEST JUMPDEST PUSH3 0x3EC DUP3 SLOAD PUSH3 0x1A8 JUMP JUMPDEST PUSH3 0x3F9 DUP3 DUP3 DUP6 PUSH3 0x31E JUMP JUMPDEST PUSH1 0x0 PUSH1 0x20 SWAP1 POP PUSH1 0x1F DUP4 GT PUSH1 0x1 DUP2 EQ PUSH3 0x431 JUMPI PUSH1 0x0 DUP5 ISZERO PUSH3 0x41C JUMPI DUP3 DUP8 ADD MLOAD SWAP1 POP JUMPDEST PUSH3 0x428 DUP6 DUP3 PUSH3 0x39B JUMP JUMPDEST DUP7 SSTORE POP PUSH3 0x498 JUMP JUMPDEST PUSH1 0x1F NOT DUP5 AND PUSH3 0x441 DUP7 PUSH3 0x1DD JUMP JUMPDEST PUSH1 0x0 JUMPDEST DUP3 DUP2 LT ISZERO PUSH3 0x46B JUMPI DUP5 DUP10 ADD MLOAD DUP3 SSTORE PUSH1 0x1 DUP3 ADD SWAP2 POP PUSH1 0x20 DUP6 ADD SWAP5 POP PUSH1 0x20 DUP2 ADD SWAP1 POP PUSH3 0x444 JUMP JUMPDEST DUP7 DUP4 LT ISZERO PUSH3 0x48B JUMPI DUP5 DUP10 ADD MLOAD PUSH3 0x487 PUSH1 0x1F DUP10 AND DUP3 PUSH3 0x37B JUMP JUMPDEST DUP4 SSTORE POP JUMPDEST PUSH1 0x1 PUSH1 0x2 DUP9 MUL ADD DUP9 SSTORE POP POP POP JUMPDEST POP POP POP POP POP POP JUMP JUMPDEST PUSH1 0x0 DUP2 SWAP1 POP DUP2 PUSH1 0x0 MSTORE PUSH1 0x20 PUSH1 0x0 KECCAK256 SWAP1 POP SWAP2 SWAP1 POP JUMP JUMPDEST PUSH1 0x1F DUP3 GT ISZERO PUSH3 0x500 JUMPI PUSH3 0x4CA DUP2 PUSH3 0x4A0 JUMP JUMPDEST PUSH3 0x4D5 DUP5 PUSH3 0x1F2 JUMP JUMPDEST DUP2 ADD PUSH1 0x20 DUP6 LT ISZERO PUSH3 0x4E5 JUMPI DUP2 SWAP1 POP JUMPDEST PUSH3 0x4FD PUSH3 0x4F4 DUP6 PUSH3 0x1F2 JUMP JUMPDEST DUP4 ADD DUP3 PUSH3 0x2F7 JUMP JUMPDEST POP POP JUMPDEST POP POP POP JUMP JUMPDEST PUSH3 0x510 DUP3 PUSH3 0x13F JUMP JUMPDEST PUSH8 0xFFFFFFFFFFFFFFFF DUP2 GT ISZERO PUSH3 0x52C JUMPI PUSH3 0x52B PUSH3 0x14A JUMP JUMPDEST JUMPDEST PUSH3 0x538 DUP3 SLOAD PUSH3 0x1A8 JUMP JUMPDEST PUSH3 0x545 DUP3 DUP3 DUP6 PUSH3 0x4B5 JUMP JUMPDEST PUSH1 0x0 PUSH1 0x20 SWAP1 POP PUSH1 0x1F DUP4 GT PUSH1 0x1 DUP2 EQ PUSH3 0x57D JUMPI PUSH1 0x0 DUP5 ISZERO PUSH3 0x568 JUMPI DUP3 DUP8 ADD MLOAD SWAP1 POP JUMPDEST PUSH3 0x574 DUP6 DUP3 PUSH3 0x39B JUMP JUMPDEST DUP7 SSTORE POP PUSH3 0x5E4 JUMP JUMPDEST PUSH1 0x1F NOT DUP5 AND PUSH3 0x58D DUP7 PUSH3 0x4A0 JUMP JUMPDEST PUSH1 0x0 JUMPDEST DUP3 DUP2 LT ISZERO PUSH3 0x5B7 JUMPI DUP5 DUP10 ADD MLOAD DUP3 SSTORE PUSH1 0x1 DUP3 ADD SWAP2 POP PUSH1 0x20 DUP6 ADD SWAP5 POP PUSH1 0x20 DUP2 ADD SWAP1 POP PUSH3 0x590 JUMP JUMPDEST DUP7 DUP4 LT ISZERO PUSH3 0x5D7 JUMPI DUP5 DUP10 ADD MLOAD PUSH3 0x5D3 PUSH1 0x1F DUP10 AND DUP3 PUSH3 0x37B JUMP JUMPDEST DUP4 SSTORE POP JUMPDEST PUSH1 0x1 PUSH1 0x2 DUP9 MUL ADD DUP9 SSTORE POP POP POP JUMPDEST POP POP POP POP POP POP JUMP JUMPDEST PUSH2 0x535 DUP1 PUSH3 0x5FC PUSH1 0x0 CODECOPY PUSH1 0x0 RETURN INVALID PUSH1 0x80 PUSH1 0x40 MSTORE CALLVALUE DUP1 ISZERO PUSH2 0x10 JUMPI PUSH1 0x0 DUP1 REVERT JUMPDEST POP PUSH1 0x4 CALLDATASIZE LT PUSH2 0x62 JUMPI PUSH1 0x0 CALLDATALOAD PUSH1 0xE0 SHR DUP1 PUSH4 0x6FDDE03 EQ PUSH2 0x67 JUMPI DUP1 PUSH4 0x15D4266C EQ PUSH2 0x85 JUMPI DUP1 PUSH4 0x3B9EAC4B EQ PUSH2 0xA3 JUMPI DUP1 PUSH4 0x3FA4F245 EQ PUSH2 0xC1 JUMPI DUP1 PUSH4 0x47C8EFA7 EQ PUSH2 0xDF JUMPI DUP1 PUSH4 0x957AA58C EQ PUSH2 0xFD JUMPI JUMPDEST PUSH1 0x0 DUP1 REVERT JUMPDEST PUSH2 0x6F PUSH2 0x11B JUMP JUMPDEST PUSH1 0x40 MLOAD PUSH2 0x7C SWAP2 SWAP1 PUSH2 0x30C JUMP JUMPDEST PUSH1 0x40 MLOAD DUP1 SWAP2 SUB SWAP1 RETURN JUMPDEST PUSH2 0x8D PUSH2 0x1A9 JUMP JUMPDEST PUSH1 0x40 MLOAD PUSH2 0x9A SWAP2 SWAP1 PUSH2 0x347 JUMP JUMPDEST PUSH1 0x40 MLOAD DUP1 SWAP2 SUB SWAP1 RETURN JUMPDEST PUSH2 0xAB PUSH2 0x1AF JUMP JUMPDEST PUSH1 0x40 MLOAD PUSH2 0xB8 SWAP2 SWAP1 PUSH2 0x37B JUMP JUMPDEST PUSH1 0x40 MLOAD DUP1 SWAP2 SUB SWAP1 RETURN JUMPDEST PUSH2 0xC9 PUSH2 0x1B5 JUMP JUMPDEST PUSH1 0x40 MLOAD PUSH2 0xD6 SWAP2 SWAP1 PUSH2 0x3B1 JUMP JUMPDEST PUSH1 0x40 MLOAD DUP1 SWAP2 SUB SWAP1 RETURN JUMPDEST PUSH2 0xE7 PUSH2 0x1C8 JUMP JUMPDEST PUSH1 0x40 MLOAD PUSH2 0xF4 SWAP2 SWAP1 PUSH2 0x421 JUMP JUMPDEST PUSH1 0x40 MLOAD DUP1 SWAP2 SUB SWAP1 RETURN JUMPDEST PUSH2 0x105 PUSH2 0x256 JUMP JUMPDEST PUSH1 0x40 MLOAD PUSH2 0x112 SWAP2 SWAP1 PUSH2 0x484 JUMP JUMPDEST PUSH1 0x40 MLOAD DUP1 SWAP2 SUB SWAP1 RETURN JUMPDEST PUSH1 0x3 DUP1 SLOAD PUSH2 0x128 SWAP1 PUSH2 0x4CE JUMP JUMPDEST DUP1 PUSH1 0x1F ADD PUSH1 0x20 DUP1 SWAP2 DIV MUL PUSH1 0x20 ADD PUSH1 0x40 MLOAD SWAP1 DUP2 ADD PUSH1 0x40 MSTORE DUP1 SWAP3 SWAP2 SWAP1 DUP2 DUP2 MSTORE PUSH1 0x20 ADD DUP3 DUP1 SLOAD PUSH2 0x154 SWAP1 PUSH2 0x4CE JUMP JUMPDEST DUP1 ISZERO PUSH2 0x1A1 JUMPI DUP1 PUSH1 0x1F LT PUSH2 0x176 JUMPI PUSH2 0x100 DUP1 DUP4 SLOAD DIV MUL DUP4 MSTORE SWAP2 PUSH1 0x20 ADD SWAP2 PUSH2 0x1A1 JUMP JUMPDEST DUP3 ADD SWAP2 SWAP1 PUSH1 0x0 MSTORE PUSH1 0x20 PUSH1 0x0 KECCAK256 SWAP1 JUMPDEST DUP2 SLOAD DUP2 MSTORE SWAP1 PUSH1 0x1 ADD SWAP1 PUSH1 0x20 ADD DUP1 DUP4 GT PUSH2 0x184 JUMPI DUP3 SWAP1 SUB PUSH1 0x1F AND DUP3 ADD SWAP2 JUMPDEST POP POP POP POP POP DUP2 JUMP JUMPDEST PUSH1 0x1 SLOAD DUP2 JUMP JUMPDEST PUSH1 0x0 SLOAD DUP2 JUMP JUMPDEST PUSH1 0x2 PUSH1 0x0 SWAP1 SLOAD SWAP1 PUSH2 0x100 EXP SWAP1 DIV PUSH1 0xFF AND DUP2 JUMP JUMPDEST PUSH1 0x4 DUP1 SLOAD PUSH2 0x1D5 SWAP1 PUSH2 0x4CE JUMP JUMPDEST DUP1 PUSH1 0x1F ADD PUSH1 0x20 DUP1 SWAP2 DIV MUL PUSH1 0x20 ADD PUSH1 0x40 MLOAD SWAP1 DUP2 ADD PUSH1 0x40 MSTORE DUP1 SWAP3 SWAP2 SWAP1 DUP2 DUP2 MSTORE PUSH1 0x20 ADD DUP3 DUP1 SLOAD PUSH2 0x201 SWAP1 PUSH2 0x4CE JUMP JUMPDEST DUP1 ISZERO PUSH2 0x24E JUMPI DUP1 PUSH1 0x1F LT PUSH2 0x223 JUMPI PUSH2 0x100 DUP1 DUP4 SLOAD DIV MUL DUP4 MSTORE SWAP2 PUSH1 0x20 ADD SWAP2 PUSH2 0x24E JUMP JUMPDEST DUP3 ADD SWAP2 SWAP1 PUSH1 0x0 MSTORE PUSH1 0x20 PUSH1 0x0 KECCAK256 SWAP1 JUMPDEST DUP2 SLOAD DUP2 MSTORE SWAP1 PUSH1 0x1 ADD SWAP1 PUSH1 0x20 ADD DUP1 DUP4 GT PUSH2 0x231 JUMPI DUP3 SWAP1 SUB PUSH1 0x1F AND DUP3 ADD SWAP2 JUMPDEST POP POP POP POP POP DUP2 JUMP JUMPDEST PUSH1 0x5 PUSH1 0x0 SWAP1 SLOAD SWAP1 PUSH2 0x100 EXP SWAP1 DIV PUSH20 0xFFFFFFFFFFFFFFFFFFFFFFFFFFFFFFFFFFFFFFFF AND DUP2 JUMP JUMPDEST PUSH1 0x0 DUP2 MLOAD SWAP1 POP SWAP2 SWAP1 POP JUMP JUMPDEST PUSH1 0x0 DUP3 DUP3 MSTORE PUSH1 0x20 DUP3 ADD SWAP1 POP SWAP3 SWAP2 POP POP JUMP JUMPDEST PUSH1 0x0 JUMPDEST DUP4 DUP2 LT ISZERO PUSH2 0x2B6 JUMPI DUP1 DUP3 ADD MLOAD DUP2 DUP5 ADD MSTORE PUSH1 0x20 DUP2 ADD SWAP1 POP PUSH2 0x29B JUMP JUMPDEST PUSH1 0x0 DUP5 DUP5 ADD MSTORE POP POP POP POP JUMP JUMPDEST PUSH1 0x0 PUSH1 0x1F NOT PUSH1 0x1F DUP4 ADD AND SWAP1 POP SWAP2 SWAP1 POP JUMP JUMPDEST PUSH1 0x0 PUSH2 0x2DE DUP3 PUSH2 0x27C JUMP JUMPDEST PUSH2 0x2E8 DUP2 DUP6 PUSH2 0x287 JUMP JUMPDEST SWAP4 POP PUSH2 0x2F8 DUP2 DUP6 PUSH1 0x20 DUP7 ADD PUSH2 0x298 JUMP JUMPDEST PUSH2 0x301 DUP2 PUSH2 0x2C2 JUMP JUMPDEST DUP5 ADD SWAP2 POP POP SWAP3 SWAP2 POP POP JUMP JUMPDEST PUSH1 0x0 PUSH1 0x20 DUP3 ADD SWAP1 POP DUP2 DUP2 SUB PUSH1 0x0 DUP4 ADD MSTORE PUSH2 0x326 DUP2 DUP5 PUSH2 0x2D3 JUMP JUMPDEST SWAP1 POP SWAP3 SWAP2 POP POP JUMP JUMPDEST PUSH1 0x0 DUP2 SWAP1 POP SWAP2 SWAP1 POP JUMP JUMPDEST PUSH2 0x341 DUP2 PUSH2 0x32E JUMP JUMPDEST DUP3 MSTORE POP POP JUMP JUMPDEST PUSH1 0x0 PUSH1 0x20 DUP3 ADD SWAP1 POP PUSH2 0x35C PUSH1 0x0 DUP4 ADD DUP5 PUSH2 0x338 JUMP JUMPDEST SWAP3 SWAP2 POP POP JUMP JUMPDEST PUSH1 0x0 DUP2 SWAP1 POP SWAP2 SWAP1 POP JUMP JUMPDEST PUSH2 0x375 DUP2 PUSH2 0x362 JUMP JUMPDEST DUP3 MSTORE POP POP JUMP JUMPDEST PUSH1 0x0 PUSH1 0x20 DUP3 ADD SWAP1 POP PUSH2 0x390 PUSH1 0x0 DUP4 ADD DUP5 PUSH2 0x36C JUMP JUMPDEST SWAP3 SWAP2 POP POP JUMP JUMPDEST PUSH1 0x0 DUP2 ISZERO ISZERO SWAP1 POP SWAP2 SWAP1 POP JUMP JUMPDEST PUSH2 0x3AB DUP2 PUSH2 0x396 JUMP JUMPDEST DUP3 MSTORE POP POP JUMP JUMPDEST PUSH1 0x0 PUSH1 0x20 DUP3 ADD SWAP1 POP PUSH2 0x3C6 PUSH1 0x0 DUP4 ADD DUP5 PUSH2 0x3A2 JUMP JUMPDEST SWAP3 SWAP2 POP POP JUMP JUMPDEST PUSH1 0x0 DUP2 MLOAD SWAP1 POP SWAP2 SWAP1 POP JUMP JUMPDEST PUSH1 0x0 DUP3 DUP3 MSTORE PUSH1 0x20 DUP3 ADD SWAP1 POP SWAP3 SWAP2 POP POP JUMP JUMPDEST PUSH1 0x0 PUSH2 0x3F3 DUP3 PUSH2 0x3CC JUMP JUMPDEST PUSH2 0x3FD DUP2 DUP6 PUSH2 0x3D7 JUMP JUMPDEST SWAP4 POP PUSH2 0x40D DUP2 DUP6 PUSH1 0x20 DUP7 ADD PUSH2 0x298 JUMP JUMPDEST PUSH2 0x416 DUP2 PUSH2 0x2C2 JUMP JUMPDEST DUP5 ADD SWAP2 POP POP SWAP3 SWAP2 POP POP JUMP JUMPDEST PUSH1 0x0 PUSH1 0x20 DUP3 ADD SWAP1 POP DUP2 DUP2 SUB PUSH1 0x0 DUP4 ADD MSTORE PUSH2 0x43B DUP2 DUP5 PUSH2 0x3E8 JUMP JUMPDEST SWAP1 POP SWAP3 SWAP2 POP POP JUMP JUMPDEST PUSH1 0x0 PUSH20 0xFFFFFFFFFFFFFFFFFFFFFFFFFFFFFFFFFFFFFFFF DUP3 AND SWAP1 POP SWAP2 SWAP1 POP JUMP JUMPDEST PUSH1 0x0 PUSH2 0x46E DUP3 PUSH2 0x443 JUMP JUMPDEST SWAP1 POP SWAP2 SWAP1 POP JUMP JUMPDEST PUSH2 0x47E DUP2 PUSH2 0x463 JUMP JUMPDEST DUP3 MSTORE POP POP JUMP JUMPDEST PUSH1 0x0 PUSH1 0x20 DUP3 ADD SWAP1 POP PUSH2 0x499 PUSH1 0x0 DUP4 ADD DUP5 PUSH2 0x475 JUMP JUMPDEST SWAP3 SWAP2 POP POP JUMP JUMPDEST PUSH32 0x4E487B7100000000000000000000000000000000000000000000000000000000 PUSH1 0x0 MSTORE PUSH1 0x22 PUSH1 0x4 MSTORE PUSH1 0x24 PUSH1 0x0 REVERT JUMPDEST PUSH1 0x0 PUSH1 0x2 DUP3 DIV SWAP1 POP PUSH1 0x1 DUP3 AND DUP1 PUSH2 0x4E6 JUMPI PUSH1 0x7F DUP3 AND SWAP2 POP JUMPDEST PUSH1 0x20 DUP3 LT DUP2 SUB PUSH2 0x4F9 JUMPI PUSH2 0x4F8 PUSH2 0x49F JUMP JUMPDEST JUMPDEST POP SWAP2 SWAP1 POP JUMP INVALID LOG2 PUSH5 0x6970667358 0x22 SLT KECCAK256 PUSH13 0x70B064347088EDE2BB80364BE6 SWAP8 STATICCALL 0xA8 0xAE 0xAE 0xBD PUSH8 0x23BA7F44019BF55C 0xB6 SSTORE 0xCC PUSH5 0x736F6C6343 STOP ADDMOD SLT STOP CALLER "
		},
		"gasEstimates": {
			"creation": {
				"codeDepositCost": "266600",
				"executionCost": "infinite",
				"totalCost": "infinite"
			},
			"external": {
				"live()": "2602",
				"name()": "infinite",
				"name1()": "infinite",
				"num1()": "2451",
				"num2()": "2429",
				"value()": "2515"
			}
		},
		"methodIdentifiers": {
			"live()": "957aa58c",
			"name()": "06fdde03",
			"name1()": "47c8efa7",
			"num1()": "3b9eac4b",
			"num2()": "15d4266c",
			"value()": "3fa4f245"
		}
	},
	"abi": [
		{
			"inputs": [],
			"name": "live",
			"outputs": [
				{
					"internalType": "address",
					"name": "",
					"type": "address"
				}
			],
			"stateMutability": "view",
			"type": "function"
		},
		{
			"inputs": [],
			"name": "name",
			"outputs": [
				{
					"internalType": "bytes",
					"name": "",
					"type": "bytes"
				}
			],
			"stateMutability": "view",
			"type": "function"
		},
		{
			"inputs": [],
			"name": "name1",
			"outputs": [
				{
					"internalType": "string",
					"name": "",
					"type": "string"
				}
			],
			"stateMutability": "view",
			"type": "function"
		},
		{
			"inputs": [],
			"name": "num1",
			"outputs": [
				{
					"internalType": "uint256",
					"name": "",
					"type": "uint256"
				}
			],
			"stateMutability": "view",
			"type": "function"
		},
		{
			"inputs": [],
			"name": "num2",
			"outputs": [
				{
					"internalType": "int256",
					"name": "",
					"type": "int256"
				}
			],
			"stateMutability": "view",
			"type": "function"
		},
		{
			"inputs": [],
			"name": "value",
			"outputs": [
				{
					"internalType": "bool",
					"name": "",
					"type": "bool"
				}
			],
			"stateMutability": "view",
			"type": "function"
		}
	]
}