{
	"data": {
		"bytecode": {
			"linkReferences": {},
			"object": "6080604052600460005534801561001557600080fd5b5061011c806100256000396000f3fe608060405260043610601c5760003560e01c8063b6a324e0146021575b600080fd5b60276029565b005b60005480341015606c576040517f08c379a000000000000000000000000000000000000000000000000000000000815260040160639060c8565b60405180910390fd5b50565b600082825260208201905092915050565b7f6d696e696d756d2076616c7565206973206e6f74207265616368656400000000600082015250565b600060b4601c83606f565b915060bd826080565b602082019050919050565b6000602082019050818103600083015260df8160a9565b905091905056fea26469706673582212209b398011699b0714a4d62afb1535fb77bbf8aca443ef875a83a3463195088f6f64736f6c63430008120033",
			"opcodes": "PUSH1 0x80 PUSH1 0x40 MSTORE PUSH1 0x4 PUSH1 0x0 SSTORE CALLVALUE DUP1 ISZERO PUSH2 0x15 JUMPI PUSH1 0x0 DUP1 REVERT JUMPDEST POP PUSH2 0x11C DUP1 PUSH2 0x25 PUSH1 0x0 CODECOPY PUSH1 0x0 RETURN INVALID PUSH1 0x80 PUSH1 0x40 MSTORE PUSH1 0x4 CALLDATASIZE LT PUSH1 0x1C JUMPI PUSH1 0x0 CALLDATALOAD PUSH1 0xE0 SHR DUP1 PUSH4 0xB6A324E0 EQ PUSH1 0x21 JUMPI JUMPDEST PUSH1 0x0 DUP1 REVERT JUMPDEST PUSH1 0x27 PUSH1 0x29 JUMP JUMPDEST STOP JUMPDEST PUSH1 0x0 SLOAD DUP1 CALLVALUE LT ISZERO PUSH1 0x6C JUMPI PUSH1 0x40 MLOAD PUSH32 0x8C379A000000000000000000000000000000000000000000000000000000000 DUP2 MSTORE PUSH1 0x4 ADD PUSH1 0x63 SWAP1 PUSH1 0xC8 JUMP JUMPDEST PUSH1 0x40 MLOAD DUP1 SWAP2 SUB SWAP1 REVERT JUMPDEST POP JUMP JUMPDEST PUSH1 0x0 DUP3 DUP3 MSTORE PUSH1 0x20 DUP3 ADD SWAP1 POP SWAP3 SWAP2 POP POP JUMP JUMPDEST PUSH32 0x6D696E696D756D2076616C7565206973206E6F74207265616368656400000000 PUSH1 0x0 DUP3 ADD MSTORE POP JUMP JUMPDEST PUSH1 0x0 PUSH1 0xB4 PUSH1 0x1C DUP4 PUSH1 0x6F JUMP JUMPDEST SWAP2 POP PUSH1 0xBD DUP3 PUSH1 0x80 JUMP JUMPDEST PUSH1 0x20 DUP3 ADD SWAP1 POP SWAP2 SWAP1 POP JUMP JUMPDEST PUSH1 0x0 PUSH1 0x20 DUP3 ADD SWAP1 POP DUP2 DUP2 SUB PUSH1 0x0 DUP4 ADD MSTORE PUSH1 0xDF DUP2 PUSH1 0xA9 JUMP JUMPDEST SWAP1 POP SWAP2 SWAP1 POP JUMP INVALID LOG2 PUSH5 0x6970667358 0x22 SLT KECCAK256 SWAP12 CODECOPY DUP1 GT PUSH10 0x9B0714A4D62AFB1535FB PUSH24 0xBBF8ACA443EF875A83A3463195088F6F64736F6C63430008 SLT STOP CALLER "
		},
		"gasEstimates": {
			"creation": {
				"codeDepositCost": "56800",
				"executionCost": "22211",
				"totalCost": "79011"
			},
			"external": {
				"fundMe()": "2515"
			}
		},
		"methodIdentifiers": {
			"fundMe()": "b6a324e0"
		}
	},
	"abi": [
		{
			"inputs": [],
			"name": "fundMe",
			"outputs": [],
			"stateMutability": "payable",
			"type": "function"
		}
	]
}